{
  "contractName": "KrabbyCoin",
  "abi": [
    {
      "inputs": [
        {
          "internalType": "string",
          "name": "tokenName",
          "type": "string"
        },
        {
          "internalType": "string",
          "name": "tokenSymbol",
          "type": "string"
        },
        {
          "internalType": "uint8",
          "name": "decimalCounts",
          "type": "uint8"
        },
        {
          "internalType": "uint256",
          "name": "tokenSupply",
          "type": "uint256"
        },
        {
          "internalType": "address",
          "name": "owner",
          "type": "address"
        }
      ],
      "stateMutability": "nonpayable",
      "type": "constructor"
    },
    {
      "anonymous": false,
      "inputs": [
        {
          "indexed": true,
          "internalType": "address",
          "name": "owner",
          "type": "address"
        },
        {
          "indexed": true,
          "internalType": "address",
          "name": "spender",
          "type": "address"
        },
        {
          "indexed": false,
          "internalType": "uint256",
          "name": "value",
          "type": "uint256"
        }
      ],
      "name": "Approval",
      "type": "event"
    },
    {
      "anonymous": false,
      "inputs": [
        {
          "indexed": true,
          "internalType": "address",
          "name": "previousOwner",
          "type": "address"
        },
        {
          "indexed": true,
          "internalType": "address",
          "name": "newOwner",
          "type": "address"
        }
      ],
      "name": "OwnershipTransferred",
      "type": "event"
    },
    {
      "anonymous": false,
      "inputs": [
        {
          "indexed": true,
          "internalType": "address",
          "name": "from",
          "type": "address"
        },
        {
          "indexed": true,
          "internalType": "address",
          "name": "to",
          "type": "address"
        },
        {
          "indexed": false,
          "internalType": "uint256",
          "name": "value",
          "type": "uint256"
        }
      ],
      "name": "Transfer",
      "type": "event"
    },
    {
      "inputs": [],
      "name": "owner",
      "outputs": [
        {
          "internalType": "address",
          "name": "",
          "type": "address"
        }
      ],
      "stateMutability": "view",
      "type": "function"
    },
    {
      "inputs": [],
      "name": "renounceOwnership",
      "outputs": [],
      "stateMutability": "nonpayable",
      "type": "function"
    },
    {
      "inputs": [
        {
          "internalType": "address",
          "name": "newOwner",
          "type": "address"
        }
      ],
      "name": "transferOwnership",
      "outputs": [],
      "stateMutability": "nonpayable",
      "type": "function"
    },
    {
      "inputs": [],
      "name": "getOwner",
      "outputs": [
        {
          "internalType": "address",
          "name": "",
          "type": "address"
        }
      ],
      "stateMutability": "view",
      "type": "function"
    },
    {
      "inputs": [],
      "name": "decimals",
      "outputs": [
        {
          "internalType": "uint8",
          "name": "",
          "type": "uint8"
        }
      ],
      "stateMutability": "view",
      "type": "function"
    },
    {
      "inputs": [],
      "name": "symbol",
      "outputs": [
        {
          "internalType": "string",
          "name": "",
          "type": "string"
        }
      ],
      "stateMutability": "view",
      "type": "function"
    },
    {
      "inputs": [],
      "name": "name",
      "outputs": [
        {
          "internalType": "string",
          "name": "",
          "type": "string"
        }
      ],
      "stateMutability": "view",
      "type": "function"
    },
    {
      "inputs": [],
      "name": "totalSupply",
      "outputs": [
        {
          "internalType": "uint256",
          "name": "",
          "type": "uint256"
        }
      ],
      "stateMutability": "view",
      "type": "function"
    },
    {
      "inputs": [
        {
          "internalType": "address",
          "name": "account",
          "type": "address"
        }
      ],
      "name": "balanceOf",
      "outputs": [
        {
          "internalType": "uint256",
          "name": "",
          "type": "uint256"
        }
      ],
      "stateMutability": "view",
      "type": "function"
    },
    {
      "inputs": [
        {
          "internalType": "address",
          "name": "recipient",
          "type": "address"
        },
        {
          "internalType": "uint256",
          "name": "amount",
          "type": "uint256"
        }
      ],
      "name": "transfer",
      "outputs": [
        {
          "internalType": "bool",
          "name": "",
          "type": "bool"
        }
      ],
      "stateMutability": "nonpayable",
      "type": "function"
    },
    {
      "inputs": [
        {
          "internalType": "address",
          "name": "owner",
          "type": "address"
        },
        {
          "internalType": "address",
          "name": "spender",
          "type": "address"
        }
      ],
      "name": "allowance",
      "outputs": [
        {
          "internalType": "uint256",
          "name": "",
          "type": "uint256"
        }
      ],
      "stateMutability": "view",
      "type": "function"
    },
    {
      "inputs": [
        {
          "internalType": "address",
          "name": "spender",
          "type": "address"
        },
        {
          "internalType": "uint256",
          "name": "amount",
          "type": "uint256"
        }
      ],
      "name": "approve",
      "outputs": [
        {
          "internalType": "bool",
          "name": "",
          "type": "bool"
        }
      ],
      "stateMutability": "nonpayable",
      "type": "function"
    },
    {
      "inputs": [
        {
          "internalType": "address",
          "name": "sender",
          "type": "address"
        },
        {
          "internalType": "address",
          "name": "recipient",
          "type": "address"
        },
        {
          "internalType": "uint256",
          "name": "amount",
          "type": "uint256"
        }
      ],
      "name": "transferFrom",
      "outputs": [
        {
          "internalType": "bool",
          "name": "",
          "type": "bool"
        }
      ],
      "stateMutability": "nonpayable",
      "type": "function"
    },
    {
      "inputs": [
        {
          "internalType": "address",
          "name": "spender",
          "type": "address"
        },
        {
          "internalType": "uint256",
          "name": "addedValue",
          "type": "uint256"
        }
      ],
      "name": "increaseAllowance",
      "outputs": [
        {
          "internalType": "bool",
          "name": "",
          "type": "bool"
        }
      ],
      "stateMutability": "nonpayable",
      "type": "function"
    },
    {
      "inputs": [
        {
          "internalType": "address",
          "name": "spender",
          "type": "address"
        },
        {
          "internalType": "uint256",
          "name": "subtractedValue",
          "type": "uint256"
        }
      ],
      "name": "decreaseAllowance",
      "outputs": [
        {
          "internalType": "bool",
          "name": "",
          "type": "bool"
        }
      ],
      "stateMutability": "nonpayable",
      "type": "function"
    },
    {
      "inputs": [
        {
          "internalType": "uint256",
          "name": "amount",
          "type": "uint256"
        }
      ],
      "name": "mint",
      "outputs": [
        {
          "internalType": "bool",
          "name": "",
          "type": "bool"
        }
      ],
      "stateMutability": "nonpayable",
      "type": "function"
    }
  ],
  "bytecode": "0x60806040523480156200001157600080fd5b5060405162000f3e38038062000f3e83398101604081905262000034916200029a565b6200003f33620000d7565b84516200005490600690602088019062000127565b5083516200006a90600590602087019062000127565b506004805460ff191660ff851617905560038290556001600160a01b0381166000818152600160209081526040808320869055518581527fddf252ad1be2c89b69c2b068fc378daa952ba7f163c4a11628f55a4df523b3ef910160405180910390a3505050505062000387565b600080546001600160a01b038381166001600160a01b0319831681178455604051919092169283917f8be0079c531659141344cd1fd0a4f28419497f9722a3daafe3b4186f6b6457e09190a35050565b82805462000135906200034a565b90600052602060002090601f016020900481019282620001595760008555620001a4565b82601f106200017457805160ff1916838001178555620001a4565b82800160010185558215620001a4579182015b82811115620001a457825182559160200191906001019062000187565b50620001b2929150620001b6565b5090565b5b80821115620001b25760008155600101620001b7565b634e487b7160e01b600052604160045260246000fd5b600082601f830112620001f557600080fd5b81516001600160401b0380821115620002125762000212620001cd565b604051601f8301601f19908116603f011681019082821181831017156200023d576200023d620001cd565b816040528381526020925086838588010111156200025a57600080fd5b600091505b838210156200027e57858201830151818301840152908201906200025f565b83821115620002905760008385830101525b9695505050505050565b600080600080600060a08688031215620002b357600080fd5b85516001600160401b0380821115620002cb57600080fd5b620002d989838a01620001e3565b96506020880151915080821115620002f057600080fd5b50620002ff88828901620001e3565b945050604086015160ff811681146200031757600080fd5b6060870151608088015191945092506001600160a01b03811681146200033c57600080fd5b809150509295509295909350565b600181811c908216806200035f57607f821691505b602082108114156200038157634e487b7160e01b600052602260045260246000fd5b50919050565b610ba780620003976000396000f3fe608060405234801561001057600080fd5b50600436106101005760003560e01c8063893d20e811610097578063a457c2d711610066578063a457c2d714610217578063a9059cbb1461022a578063dd62ed3e1461023d578063f2fde38b1461027657600080fd5b8063893d20e8146101c65780638da5cb5b146101eb57806395d89b41146101fc578063a0712d681461020457600080fd5b8063313ce567116100d3578063313ce5671461016b578063395093511461018057806370a0823114610193578063715018a6146101bc57600080fd5b806306fdde0314610105578063095ea7b31461012357806318160ddd1461014657806323b872dd14610158575b600080fd5b61010d610289565b60405161011a9190610964565b60405180910390f35b6101366101313660046109d0565b61031b565b604051901515815260200161011a565b6003545b60405190815260200161011a565b6101366101663660046109fa565b610331565b60045460405160ff909116815260200161011a565b61013661018e3660046109d0565b61039a565b61014a6101a1366004610a36565b6001600160a01b031660009081526001602052604090205490565b6101c46103d0565b005b6000546001600160a01b03165b6040516001600160a01b03909116815260200161011a565b6000546001600160a01b03166101d3565b61010d6103e4565b610136610212366004610a51565b6103f3565b6101366102253660046109d0565b610410565b6101366102383660046109d0565b61045f565b61014a61024b366004610a6a565b6001600160a01b03918216600090815260026020908152604080832093909416825291909152205490565b6101c4610284366004610a36565b61046c565b60606006805461029890610a9d565b80601f01602080910402602001604051908101604052809291908181526020018280546102c490610a9d565b80156103115780601f106102e657610100808354040283529160200191610311565b820191906000526020600020905b8154815290600101906020018083116102f457829003601f168201915b5050505050905090565b60006103283384846104ea565b50600192915050565b600061033e84848461060f565b610390843361038b85604051806060016040528060288152602001610aff602891396001600160a01b038a1660009081526002602090815260408083203384529091529020549190610795565b6104ea565b5060019392505050565b3360008181526002602090815260408083206001600160a01b0387168452909152812054909161032891859061038b90866107c1565b6103d86107d4565b6103e2600061082e565b565b60606005805461029890610a9d565b60006103fd6107d4565b610407338361087e565b5060015b919050565b6000610328338461038b85604051806060016040528060258152602001610b4d602591393360009081526002602090815260408083206001600160a01b038d1684529091529020549190610795565b600061032833848461060f565b6104746107d4565b6001600160a01b0381166104de5760405162461bcd60e51b815260206004820152602660248201527f4f776e61626c653a206e6577206f776e657220697320746865207a65726f206160448201526564647265737360d01b60648201526084015b60405180910390fd5b6104e78161082e565b50565b6001600160a01b03831661054c5760405162461bcd60e51b8152602060048201526024808201527f42455032303a20617070726f76652066726f6d20746865207a65726f206164646044820152637265737360e01b60648201526084016104d5565b6001600160a01b0382166105ad5760405162461bcd60e51b815260206004820152602260248201527f42455032303a20617070726f766520746f20746865207a65726f206164647265604482015261737360f01b60648201526084016104d5565b6001600160a01b0383811660008181526002602090815260408083209487168084529482529182902085905590518481527f8c5be1e5ebec7d5bd14f71427d1e84f3dd0314c0f7b2291e5b200ac8c7c3b92591015b60405180910390a3505050565b6001600160a01b0383166106735760405162461bcd60e51b815260206004820152602560248201527f42455032303a207472616e736665722066726f6d20746865207a65726f206164604482015264647265737360d81b60648201526084016104d5565b6001600160a01b0382166106d55760405162461bcd60e51b815260206004820152602360248201527f42455032303a207472616e7366657220746f20746865207a65726f206164647260448201526265737360e81b60648201526084016104d5565b61071281604051806060016040528060268152602001610b27602691396001600160a01b0386166000908152600160205260409020549190610795565b6001600160a01b03808516600090815260016020526040808220939093559084168152205461074190826107c1565b6001600160a01b0380841660008181526001602052604090819020939093559151908516907fddf252ad1be2c89b69c2b068fc378daa952ba7f163c4a11628f55a4df523b3ef906106029085815260200190565b600081848411156107b95760405162461bcd60e51b81526004016104d59190610964565b505050900390565b60006107cd8284610ad8565b9392505050565b6000546001600160a01b031633146103e25760405162461bcd60e51b815260206004820181905260248201527f4f776e61626c653a2063616c6c6572206973206e6f7420746865206f776e657260448201526064016104d5565b600080546001600160a01b038381166001600160a01b0319831681178455604051919092169283917f8be0079c531659141344cd1fd0a4f28419497f9722a3daafe3b4186f6b6457e09190a35050565b6001600160a01b0382166108d45760405162461bcd60e51b815260206004820152601f60248201527f42455032303a206d696e7420746f20746865207a65726f20616464726573730060448201526064016104d5565b6003546108e190826107c1565b6003556001600160a01b03821660009081526001602052604090205461090790826107c1565b6001600160a01b0383166000818152600160205260408082209390935591519091907fddf252ad1be2c89b69c2b068fc378daa952ba7f163c4a11628f55a4df523b3ef906109589085815260200190565b60405180910390a35050565b600060208083528351808285015260005b8181101561099157858101830151858201604001528201610975565b818111156109a3576000604083870101525b50601f01601f1916929092016040019392505050565b80356001600160a01b038116811461040b57600080fd5b600080604083850312156109e357600080fd5b6109ec836109b9565b946020939093013593505050565b600080600060608486031215610a0f57600080fd5b610a18846109b9565b9250610a26602085016109b9565b9150604084013590509250925092565b600060208284031215610a4857600080fd5b6107cd826109b9565b600060208284031215610a6357600080fd5b5035919050565b60008060408385031215610a7d57600080fd5b610a86836109b9565b9150610a94602084016109b9565b90509250929050565b600181811c90821680610ab157607f821691505b60208210811415610ad257634e487b7160e01b600052602260045260246000fd5b50919050565b60008219821115610af957634e487b7160e01b600052601160045260246000fd5b50019056fe42455032303a207472616e7366657220616d6f756e74206578636565647320616c6c6f77616e636542455032303a207472616e7366657220616d6f756e7420657863656564732062616c616e636542455032303a2064656372656173656420616c6c6f77616e63652062656c6f77207a65726fa26469706673582212207f065f38a2187234d6a47c64fa21f31f199aa942ae35670de3ce0bdafb36e42464736f6c63430008090033",
  "immutableReferences": {},
  "source": "// SPDX-License-Identifier: MIT\n\npragma solidity >=0.8.0;\n\nimport './IERC20.sol';\nimport '@openzeppelin/contracts/access/Ownable.sol';\nimport '@openzeppelin/contracts/utils/math/SafeMath.sol';\n\ncontract KrabbyCoin is Context, IERC20, Ownable {\n  using SafeMath for uint256;\n\n  mapping(address => uint256) private _balances;\n\n  mapping(address => mapping(address => uint256)) private _allowances;\n\n  uint256 private _totalSupply;\n  uint8 private _decimals;\n  string private _symbol;\n  string private _name;\n\n  constructor(\n    string memory tokenName,\n    string memory tokenSymbol,\n    uint8 decimalCounts,\n    uint256 tokenSupply,\n    address owner\n  ) {\n    _name = tokenName;\n    _symbol = tokenSymbol;\n    _decimals = decimalCounts;\n    _totalSupply = tokenSupply;\n    _balances[owner] = _totalSupply;\n\n    emit Transfer(address(0), owner, _totalSupply);\n  }\n\n  /**\n   * @dev Returns the bep token owner.\n   */\n  function getOwner() external view override returns (address) {\n    return owner();\n  }\n\n  /**\n   * @dev Returns the token decimals.\n   */\n  function decimals() external view override returns (uint8) {\n    return _decimals;\n  }\n\n  /**\n   * @dev Returns the token symbol.\n   */\n  function symbol() external view override returns (string memory) {\n    return _symbol;\n  }\n\n  /**\n   * @dev Returns the token name.\n   */\n  function name() external view override returns (string memory) {\n    return _name;\n  }\n\n  /**\n   * @dev See {BEP20-totalSupply}.\n   */\n  function totalSupply() external view override returns (uint256) {\n    return _totalSupply;\n  }\n\n  /**\n   * @dev See {BEP20-balanceOf}.\n   */\n  function balanceOf(address account) external view override returns (uint256) {\n    return _balances[account];\n  }\n\n  /**\n   * @dev See {BEP20-transfer}.\n   *\n   * Requirements:\n   *\n   * - `recipient` cannot be the zero address.\n   * - the caller must have a balance of at least `amount`.\n   */\n  function transfer(address recipient, uint256 amount) external override returns (bool) {\n    _transfer(_msgSender(), recipient, amount);\n    return true;\n  }\n\n  /**\n   * @dev See {BEP20-allowance}.\n   */\n  function allowance(address owner, address spender) external view override returns (uint256) {\n    return _allowances[owner][spender];\n  }\n\n  /**\n   * @dev See {BEP20-approve}.\n   *\n   * Requirements:\n   *\n   * - `spender` cannot be the zero address.\n   */\n  function approve(address spender, uint256 amount) external override returns (bool) {\n    _approve(_msgSender(), spender, amount);\n    return true;\n  }\n\n  /**\n   * @dev See {BEP20-transferFrom}.\n   *\n   * Emits an {Approval} event indicating the updated allowance. This is not\n   * required by the EIP. See the note at the beginning of {BEP20};\n   *\n   * Requirements:\n   * - `sender` and `recipient` cannot be the zero address.\n   * - `sender` must have a balance of at least `amount`.\n   * - the caller must have allowance for `sender`'s tokens of at least\n   * `amount`.\n   */\n  function transferFrom(\n    address sender,\n    address recipient,\n    uint256 amount\n  ) external override returns (bool) {\n    _transfer(sender, recipient, amount);\n    _approve(sender, _msgSender(), _allowances[sender][_msgSender()].sub(amount, 'BEP20: transfer amount exceeds allowance'));\n    return true;\n  }\n\n  /**\n   * @dev Atomically increases the allowance granted to `spender` by the caller.\n   *\n   * This is an alternative to {approve} that can be used as a mitigation for\n   * problems described in {BEP20-approve}.\n   *\n   * Emits an {Approval} event indicating the updated allowance.\n   *\n   * Requirements:\n   *\n   * - `spender` cannot be the zero address.\n   */\n  function increaseAllowance(address spender, uint256 addedValue) public returns (bool) {\n    _approve(_msgSender(), spender, _allowances[_msgSender()][spender].add(addedValue));\n    return true;\n  }\n\n  /**\n   * @dev Atomically decreases the allowance granted to `spender` by the caller.\n   *\n   * This is an alternative to {approve} that can be used as a mitigation for\n   * problems described in {BEP20-approve}.\n   *\n   * Emits an {Approval} event indicating the updated allowance.\n   *\n   * Requirements:\n   *\n   * - `spender` cannot be the zero address.\n   * - `spender` must have allowance for the caller of at least\n   * `subtractedValue`.\n   */\n  function decreaseAllowance(address spender, uint256 subtractedValue) public returns (bool) {\n    _approve(\n      _msgSender(),\n      spender,\n      _allowances[_msgSender()][spender].sub(subtractedValue, 'BEP20: decreased allowance below zero')\n    );\n    return true;\n  }\n\n  /**\n   * @dev Creates `amount` tokens and assigns them to `msg.sender`, increasing\n   * the total supply.\n   *\n   * Requirements\n   *\n   * - `msg.sender` must be the token owner\n   */\n  function mint(uint256 amount) public onlyOwner returns (bool) {\n    _mint(_msgSender(), amount);\n    return true;\n  }\n\n  /**\n   * @dev Moves tokens `amount` from `sender` to `recipient`.\n   *\n   * This is internal function is equivalent to {transfer}, and can be used to\n   * e.g. implement automatic token fees, slashing mechanisms, etc.\n   *\n   * Emits a {Transfer} event.\n   *\n   * Requirements:\n   *\n   * - `sender` cannot be the zero address.\n   * - `recipient` cannot be the zero address.\n   * - `sender` must have a balance of at least `amount`.\n   */\n  function _transfer(\n    address sender,\n    address recipient,\n    uint256 amount\n  ) internal {\n    require(sender != address(0), 'BEP20: transfer from the zero address');\n    require(recipient != address(0), 'BEP20: transfer to the zero address');\n\n    _balances[sender] = _balances[sender].sub(amount, 'BEP20: transfer amount exceeds balance');\n    _balances[recipient] = _balances[recipient].add(amount);\n    emit Transfer(sender, recipient, amount);\n  }\n\n  /** @dev Creates `amount` tokens and assigns them to `account`, increasing\n   * the total supply.\n   *\n   * Emits a {Transfer} event with `from` set to the zero address.\n   *\n   * Requirements\n   *\n   * - `to` cannot be the zero address.\n   */\n  function _mint(address account, uint256 amount) internal {\n    require(account != address(0), 'BEP20: mint to the zero address');\n\n    _totalSupply = _totalSupply.add(amount);\n    _balances[account] = _balances[account].add(amount);\n    emit Transfer(address(0), account, amount);\n  }\n\n  /**\n   * @dev Destroys `amount` tokens from `account`, reducing the\n   * total supply.\n   *\n   * Emits a {Transfer} event with `to` set to the zero address.\n   *\n   * Requirements\n   *\n   * - `account` cannot be the zero address.\n   * - `account` must have at least `amount` tokens.\n   */\n  function _burn(address account, uint256 amount) internal {\n    require(account != address(0), 'BEP20: burn from the zero address');\n\n    _balances[account] = _balances[account].sub(amount, 'BEP20: burn amount exceeds balance');\n    _totalSupply = _totalSupply.sub(amount);\n    emit Transfer(account, address(0), amount);\n  }\n\n  /**\n   * @dev Sets `amount` as the allowance of `spender` over the `owner`s tokens.\n   *\n   * This is internal function is equivalent to `approve`, and can be used to\n   * e.g. set automatic allowances for certain subsystems, etc.\n   *\n   * Emits an {Approval} event.\n   *\n   * Requirements:\n   *\n   * - `owner` cannot be the zero address.\n   * - `spender` cannot be the zero address.\n   */\n  function _approve(\n    address owner,\n    address spender,\n    uint256 amount\n  ) internal {\n    require(owner != address(0), 'BEP20: approve from the zero address');\n    require(spender != address(0), 'BEP20: approve to the zero address');\n\n    _allowances[owner][spender] = amount;\n    emit Approval(owner, spender, amount);\n  }\n\n  /**\n   * @dev Destroys `amount` tokens from `account`.`amount` is then deducted\n   * from the caller's allowance.\n   *\n   * See {_burn} and {_approve}.\n   */\n  function _burnFrom(address account, uint256 amount) internal {\n    _burn(account, amount);\n    _approve(account, _msgSender(), _allowances[account][_msgSender()].sub(amount, 'BEP20: burn amount exceeds allowance'));\n  }\n}\n",
  "sourcePath": "/Users/ifundeasy/Developer/swapsy/standard-erc20/contracts/KrabbyCoin.sol",
  "compiler": {
    "name": "solc",
    "version": "0.8.9+commit.e5eed63a.Emscripten.clang"
  },
  "schemaVersion": "3.4.8",
  "updatedAt": "2022-08-06T12:00:12.890Z",
  "devdoc": {
    "kind": "dev",
    "methods": {
      "allowance(address,address)": {
        "details": "See {BEP20-allowance}."
      },
      "approve(address,uint256)": {
        "details": "See {BEP20-approve}. Requirements: - `spender` cannot be the zero address."
      },
      "balanceOf(address)": {
        "details": "See {BEP20-balanceOf}."
      },
      "decimals()": {
        "details": "Returns the token decimals."
      },
      "decreaseAllowance(address,uint256)": {
        "details": "Atomically decreases the allowance granted to `spender` by the caller. This is an alternative to {approve} that can be used as a mitigation for problems described in {BEP20-approve}. Emits an {Approval} event indicating the updated allowance. Requirements: - `spender` cannot be the zero address. - `spender` must have allowance for the caller of at least `subtractedValue`."
      },
      "getOwner()": {
        "details": "Returns the bep token owner."
      },
      "increaseAllowance(address,uint256)": {
        "details": "Atomically increases the allowance granted to `spender` by the caller. This is an alternative to {approve} that can be used as a mitigation for problems described in {BEP20-approve}. Emits an {Approval} event indicating the updated allowance. Requirements: - `spender` cannot be the zero address."
      },
      "mint(uint256)": {
        "details": "Creates `amount` tokens and assigns them to `msg.sender`, increasing the total supply. Requirements - `msg.sender` must be the token owner"
      },
      "name()": {
        "details": "Returns the token name."
      },
      "owner()": {
        "details": "Returns the address of the current owner."
      },
      "renounceOwnership()": {
        "details": "Leaves the contract without owner. It will not be possible to call `onlyOwner` functions anymore. Can only be called by the current owner. NOTE: Renouncing ownership will leave the contract without an owner, thereby removing any functionality that is only available to the owner."
      },
      "symbol()": {
        "details": "Returns the token symbol."
      },
      "totalSupply()": {
        "details": "See {BEP20-totalSupply}."
      },
      "transfer(address,uint256)": {
        "details": "See {BEP20-transfer}. Requirements: - `recipient` cannot be the zero address. - the caller must have a balance of at least `amount`."
      },
      "transferFrom(address,address,uint256)": {
        "details": "See {BEP20-transferFrom}. Emits an {Approval} event indicating the updated allowance. This is not required by the EIP. See the note at the beginning of {BEP20}; Requirements: - `sender` and `recipient` cannot be the zero address. - `sender` must have a balance of at least `amount`. - the caller must have allowance for `sender`'s tokens of at least `amount`."
      },
      "transferOwnership(address)": {
        "details": "Transfers ownership of the contract to a new account (`newOwner`). Can only be called by the current owner."
      }
    },
    "version": 1
  },
  "userdoc": {
    "kind": "user",
    "methods": {},
    "version": 1
  }
}