{
  "contractName": "OwnableUpgradeable",
  "abi": [
    {
      "anonymous": false,
      "inputs": [
        {
          "indexed": true,
          "internalType": "address",
          "name": "previousOwner",
          "type": "address"
        },
        {
          "indexed": true,
          "internalType": "address",
          "name": "newOwner",
          "type": "address"
        }
      ],
      "name": "OwnershipTransferred",
      "type": "event"
    },
    {
      "inputs": [
        {
          "internalType": "address",
          "name": "account",
          "type": "address"
        }
      ],
      "name": "authorize",
      "outputs": [],
      "stateMutability": "nonpayable",
      "type": "function"
    },
    {
      "inputs": [
        {
          "internalType": "address",
          "name": "account",
          "type": "address"
        }
      ],
      "name": "unauthorize",
      "outputs": [],
      "stateMutability": "nonpayable",
      "type": "function"
    },
    {
      "inputs": [],
      "name": "owner",
      "outputs": [
        {
          "internalType": "address",
          "name": "",
          "type": "address"
        }
      ],
      "stateMutability": "view",
      "type": "function"
    },
    {
      "inputs": [
        {
          "internalType": "address",
          "name": "account",
          "type": "address"
        }
      ],
      "name": "isOwner",
      "outputs": [
        {
          "internalType": "bool",
          "name": "",
          "type": "bool"
        }
      ],
      "stateMutability": "view",
      "type": "function"
    },
    {
      "inputs": [
        {
          "internalType": "address",
          "name": "account",
          "type": "address"
        }
      ],
      "name": "isAuthorized",
      "outputs": [
        {
          "internalType": "bool",
          "name": "",
          "type": "bool"
        }
      ],
      "stateMutability": "view",
      "type": "function"
    },
    {
      "inputs": [
        {
          "internalType": "address payable",
          "name": "newOwner",
          "type": "address"
        }
      ],
      "name": "transferOwnership",
      "outputs": [],
      "stateMutability": "nonpayable",
      "type": "function"
    }
  ],
  "bytecode": "0x608060405234801561001057600080fd5b50610339806100206000396000f3fe608060405234801561001057600080fd5b50600436106100625760003560e01c80632f54bf6e146100675780638da5cb5b1461009e578063b6a5d7de146100b9578063f0b37c04146100ce578063f2fde38b146100e1578063fe9fbb80146100f4575b600080fd5b6100896100753660046102b6565b6033546001600160a01b0391821691161490565b60405190151581526020015b60405180910390f35b6033546040516001600160a01b039091168152602001610095565b6100cc6100c73660046102b6565b610120565b005b6100cc6100dc3660046102b6565b610172565b6100cc6100ef3660046102b6565b6101b8565b6100896101023660046102b6565b6001600160a01b031660009081526034602052604090205460ff1690565b61012933610075565b61014e5760405162461bcd60e51b8152600401610145906102da565b60405180910390fd5b6001600160a01b03166000908152603460205260409020805460ff19166001179055565b61017b33610075565b6101975760405162461bcd60e51b8152600401610145906102da565b6001600160a01b03166000908152603460205260409020805460ff19169055565b6101c133610075565b6101dd5760405162461bcd60e51b8152600401610145906102da565b6001600160a01b03811661022b5760405162461bcd60e51b81526020600482015260156024820152744f776e61626c653a205a65726f206164647265737360581b6044820152606401610145565b61023481610237565b50565b603380546001600160a01b038381166001600160a01b031983168117909355600083815260346020526040808220805460ff191660011790555191909216929183917f8be0079c531659141344cd1fd0a4f28419497f9722a3daafe3b4186f6b6457e09190a35050565b6001600160a01b038116811461023457600080fd5b6000602082840312156102c857600080fd5b81356102d3816102a1565b9392505050565b6020808252600f908201526e27bbb730b136329d1010a7aba722a960891b60408201526060019056fea26469706673582212202e7dce039ed34839a4e725fa795a94128d613555a5f675bcc34e1fbe476642e664736f6c63430008090033",
  "immutableReferences": {},
  "source": "// SPDX-License-Identifier: MIT\n\n// solhint-disable func-name-mixedcase\n\n// pragma solidity =0.8.4;\npragma solidity >=0.8.9;\n\nimport \"./Initializable.sol\";\nimport \"./ContextUpgradeable.sol\";\n\ncontract OwnableUpgradeable is Initializable, ContextUpgradeable {\n  address private _owner;\n  mapping(address => bool) internal authorizations;\n\n  // event OwnershipTransferred(address owner);\n  event OwnershipTransferred(\n    address indexed previousOwner,\n    address indexed newOwner\n  );\n\n  /**\n   * @dev Initializes the contract setting the deployer as the initial owner.\n   */\n  function __Ownable_init() internal initializer {\n    __Context_init_unchained();\n    __Ownable_init_unchained();\n  }\n\n  function __Ownable_init_unchained() internal initializer {\n    _setOwner(_msgSender());\n    authorizations[_msgSender()] = true;\n  }\n\n  /**\n   * Function modifier to require caller to be contract owner\n   */\n  modifier onlyOwner() {\n    require(isOwner(_msgSender()), \"Ownable: !OWNER\");\n    _;\n  }\n\n  /**\n   * Function modifier to require caller to be authorized\n   */\n  modifier authorized() {\n    require(isAuthorized(msg.sender), \"Ownable: !AUTHORIZED\");\n    _;\n  }\n\n  /**\n   * Authorize address. Owner only\n   */\n  function authorize(address account) public onlyOwner {\n    authorizations[account] = true;\n  }\n\n  /**\n   * Remove address' authorization. Owner only\n   */\n  function unauthorize(address account) public onlyOwner {\n    authorizations[account] = false;\n  }\n\n  /**\n   * Return owner's address\n   */\n  function owner() public view returns (address) {\n    return _owner;\n  }\n\n  /**\n   * Check if address is owner\n   */\n  function isOwner(address account) public view returns (bool) {\n    return account == _owner;\n  }\n\n  function _setOwner(address newOwner) private {\n    address oldOwner = _owner;\n    _owner = newOwner;\n    authorizations[newOwner] = true;\n    emit OwnershipTransferred(oldOwner, newOwner);\n  }\n\n  /**\n   * Return address' authorization status\n   */\n  function isAuthorized(address account) public view returns (bool) {\n    return authorizations[account];\n  }\n\n  /**\n   * Transfer ownership to new address. Caller must be owner. Leaves old owner authorized\n   */\n  function transferOwnership(address payable newOwner) public onlyOwner {\n    require(newOwner != address(0), \"Ownable: Zero address\");\n    _setOwner(newOwner);\n  }\n\n  uint256[49] private __gap;\n}\n",
  "sourcePath": "/Users/ifundeasy/Developer/dooit/sc-dooit/contracts/OwnableUpgradeable.sol",
  "compiler": {
    "name": "solc",
    "version": "0.8.9+commit.e5eed63a.Emscripten.clang"
  },
  "schemaVersion": "3.4.4",
  "updatedAt": "2022-02-12T22:42:53.055Z",
  "devdoc": {
    "kind": "dev",
    "methods": {},
    "version": 1
  },
  "userdoc": {
    "kind": "user",
    "methods": {
      "authorize(address)": {
        "notice": "Authorize address. Owner only"
      },
      "isAuthorized(address)": {
        "notice": "Return address' authorization status"
      },
      "isOwner(address)": {
        "notice": "Check if address is owner"
      },
      "owner()": {
        "notice": "Return owner's address"
      },
      "transferOwnership(address)": {
        "notice": "Transfer ownership to new address. Caller must be owner. Leaves old owner authorized"
      },
      "unauthorize(address)": {
        "notice": "Remove address' authorization. Owner only"
      }
    },
    "version": 1
  }
}